:020000040000FA
:100000009E01DE2804089300851105110511831651
:10001000851105110511F0308605831213089E180D
:100020002F283A308D00FC30A42033309200442039
:1000300010308D006830A42044206430A320442078
:1000400022309200442028302E200C302E20013007
:100050002E2006302E209E1413082F281E149200E6
:100060001E1C3D280511033C031C4228422007307A
:100070008D00D030A420031408001E14FE3C031988
:10008000D9280515920E1E1C1E108515F030860508
:1000900012080F3986048511920E1E18442832303A
:1000A000A320031408009F13150803199F17053098
:1000B000940027308F001030692003308F00E83023
:1000C00069208F01643069208F010A30692010088F
:1000D00070288E0011088D0010088C00B8200C08C4
:1000E0008C00940303199F13150803197A2814022E
:1000F000031808000C08031D9F139F1B0800303EC7
:10010000D4288316081483120808890AD928030101
:1001100088008316081555308900AA308900881494
:100120008818902808118312890AD9288F018E0017
:10013000FF308E07031C8F07031CD92803308D0066
:10014000DF30A42098288D01E83E8C008D09FC301A
:10015000031CAD288C070318AA288C0764008D0F98
:10016000AA280C18B3288C1CB7280000B728080050
:1001700091019001103092000D0D900D910D0E081F
:1001800090020F08031C0F0F91020318CE280E08CF
:1001900090070F0803180F0F910703108C0D8D0D9A
:1001A000920BBC280C08D92884001D088A001C0862
:1001B0008200831303138312640008008316D03077
:1001C000860013308500C83083129620FE3003204D
:1001D00001300320413003207830032069300320B0
:1001E000733003202715FA30A400FF30A50001303A
:1001F0008900003027190130882002308900240846
:100200008820033089002508882001308F00F430D1
:100210009720013089008120013903192711031D1E
:100220002715003027190130013C031C2229013019
:100230008A00003027190130203E03188A0A820004
:100240002229FB2A0130A60064000530260203188B
:100250005729FE300320013003205330032074302F
:100260000320613003207230032074300320693092
:1002700003206E30032067300320203003206E30CF
:1002800003206530032077300320203003204A30DC
:1002900003206F3003206230032064309620FE304C
:1002A00003200130032064309620A60F2429FE305D
:1002B00003200130032050300320723003206530CA
:1002C0000320733003207330032020300320733069
:1002D0000320743003206130032072300320743017
:1002E0000320A401A5016400061B79293230962061
:1002F000732986168316861283122715013089000A
:100300000030271901308820FE30032001300320FF
:100310004A3003206F300320623003202030032056
:10032000693003206E30032020300320503003203A
:10033000723003206F3003206730032072300320B7
:10034000653003207330032073300320FE30032018
:10035000C530032095012408900025089100023043
:100360009C009D0153202030032074300320753001
:100370000320723003206E300320733003206400AA
:10038000061EC329CC216400861FC729F3216400FF
:10039000051CCB296922BF2964309620A40A0319C1
:1003A000A50A023089002408882003308900250826
:1003B0008820FE300320C5300320950124089000DA
:1003C0002508910002309C009D015320203003201D
:1003D0007430032075300320723003206E30032008
:1003E000733003200800861283168612FE308312B3
:1003F000032001300320573003206F300320723078
:1004000003206B3003202030032050300320613064
:1004100003207530032073300320653003206430DF
:100420000320FE300320C030032050300320723000
:100430000320653003207330032073300320203005
:1004400003207330032074300320613003207230A6
:1004500003207430032002308900240888200330F0
:100460008900250888206400061F372A382A332A85
:1004700032309620A6010130A60064000330260227
:100480000318682AFE300320013003205230032075
:100490006530032073300320753003206D30032056
:1004A000693003206E3003206730032020300320A2
:1004B0006A3003206F3003206230032064309620BE
:1004C000FE3003200130032064309620A60F3D2A21
:1004D000792964309620861283168612640083126E
:1004E000A71D732AA82AA715FE3003200130032078
:1004F00043300320613003206E300320633003203B
:10050000653003206C3003203F300320FE30032091
:10051000C030032053300320743003206F30032099
:100520007030032020300320743003206F3003200C
:1005300020300320633003206F3003206E3003200F
:100540006630032069300320723003206D300320B1
:100550006400051CAC2AAD2AA82A64309620FE301F
:100560000320013003204A3003206F300320623023
:1005700003202030032073300320743003206F30B9
:100580000320703003207030032065300320643076
:100590000320FE300320C03003205030032072308F
:1005A0000320653003207330032073300320203094
:1005B0000320533003207430032061300320723055
:1005C000032074300320A401A50127110130890004
:1005D0000030271901308820023089002408882043
:1005E00003308900250888206400061FF82A09299D
:1005F00032309620F42AFE300320013003205030A0
:100600000320653003206E300320643003206930FE
:1006100003206E30032067300320203003206A302F
:1006200003206F30032062300320FE300320C530EA
:100630000320433003206F3003206E3003207430DA
:100640000320693003206E300320753003206530AD
:1006500003203F3003206400061F2F2B3423640047
:10066000051C332B69222B2BA6010130A600640048
:10067000053026020318622BFE30032001300320D0
:10068000523003206530032073300320753003207F
:100690006D300320693003206E3003206730032063
:1006A000203003204A3003206F30032062300320C3
:1006B00064309620FE300320013003206430962001
:1006C000A60F372B2715013089000030271901307C
:1006D0008820023089008120A40003308900812015
:0806E000A50079296300722BCB
:02400E00FD3F74
:00000001FF
