:020000040000FA
:100000009E01DC28040893000510851085108316D6
:100010000510851085100F308605831213089E1871
:100020002E283A308D00FC30A2203330920042203E
:1000300010308D006830A22042206430A120223090
:100040009200422028302D200C302D2001302D2010
:1000500006302D209E1413082E281E1492001E1CFC
:100060003C288510033C031C4128412007308D00AB
:10007000D030A220031408001E14FE3C0319D72818
:1000800085141E1C1E1005140F3086051208F03949
:1000900086040510920E1E1842283230A120031447
:1000A00008009F13150803199F1705309400273087
:1000B0008F001030672003308F00E83067208F01F9
:1000C000643067208F010A30672010086E288E0088
:1000D00011088D0010088C00B6200C088C009403C9
:1000E00003199F1315080319782814020318080030
:1000F0000C08031D9F139F1B0800303ED228831657
:10010000081483120808890AD72803018800831677
:10011000081555308900AA308900881488188E285F
:1001200008118312890AD7288F018E00FF308E07AD
:10013000031C8F07031CD72803308D00DF30A2205B
:1001400096288D01E83E8C008D09FC30031CAB28FD
:100150008C070318A8288C0764008D0FA8280C189A
:10016000B1288C1CB5280000B52808009101900129
:10017000103092000D0D900D910D0E0890020F0899
:10018000031C0F0F91020318CC280E0890070F08CC
:1001900003180F0F910703108C0D8D0D920BBA28C9
:1001A0000C08D72884001D088A001C0882008313CD
:1001B000031383126400080083161C30850001308D
:1001C0008600C83083129420FE30032001300320C3
:1001D00057300320653003206C3003206330032048
:1001E0006F3003206D300320653003202715FA306F
:1001F000A400FF30A500013089000030271901302C
:1002000086200230890024088620033089002508D2
:10021000862001308F00F4309520013089007F2046
:10022000013903192711031D271500302719013043
:10023000013C031C262901308A00003027190130B7
:10024000243E03188A0A82002629FF2A0130A600CC
:1002500064000530260203185B29FE3003200130BC
:1002600003205330032074300320613003207230A8
:10027000032074300320693003206E300320673080
:100280000320203003206E300320653003207730B8
:100290000320203003204A3003206F3003206230D7
:1002A000032064309420FE300320013003206430AA
:1002B0009420A60F2829FE3003200130032050305F
:1002C0000320723003206530032073300320733025
:1002D000032020300320733003207430032061306A
:1002E00003207230032074300320A401A5016400B0
:1002F00005197D29323094207729861583168611B9
:10030000831227150130890000302719013086201B
:10031000FE300320013003204A3003206F300320D9
:100320006230032020300320693003206E30032028
:100330002030032050300320723003206F30032020
:1003400067300320723003206530032073300320B0
:1003500073300320FE300320C530032095012408AC
:1003600090002508910002309C009D015120203012
:1003700003207430032075300320723003206E3068
:100380000320733003206400061CC729D0216400B9
:10039000851DCB29F7216400051ECF296D22C329B5
:1003A00064309420A40A0319A50A023089002408A5
:1003B00086200330890025088620FE300320C530C2
:1003C00003209501240890002508910002309C002C
:1003D0009D0151202030032074300320753003200C
:1003E000723003206E300320733003200800861122
:1003F00083168611FE30831203200130032057300C
:1004000003206F300320723003206B300320203034
:1004100003205030032061300320753003207330F7
:1004200003206530032064300320FE300320C030F9
:1004300003205030032072300320653003207330D6
:1004400003207330032020300320733003207430E6
:100450000320613003207230032074300320023007
:10046000890024088620033089002508862064003E
:10047000051D3B2A3C2A372A32309420A601013040
:10048000A60064000330260203186C2AFE30032005
:1004900001300320523003206530032073300320E5
:1004A000753003206D300320693003206E30032047
:1004B00067300320203003206A3003206F30032090
:1004C0006230032064309420FE300320013003208A
:1004D00064309420A60F412A7D296430942086112F
:1004E0008316861164008312A71D772AAC2AA715EC
:1004F000FE3003200130032043300320613003200D
:100500006E30032063300320653003206C300320FD
:100510003F300320FE300320C0300320533003203F
:10052000743003206F30032070300320203003200C
:10053000743003206F300320203003206330032009
:100540006F3003206E3003206630032069300320B3
:10055000723003206D3003206400051EB02AB12ADA
:10056000AC2A64309420FE300320013003204A304E
:1005700003206F30032062300320203003207330CB
:100580000320743003206F3003207030032070305C
:1005900003206530032064300320FE300320C03088
:1005A0000320503003207230032065300320733065
:1005B0000320733003202030032053300320743095
:1005C0000320613003207230032074300320A40123
:1005D000A50127110130890000302719013086203C
:1005E00002308900240886200330890025088620EF
:1005F0006400051DFC2A0D2932309420F82AFE30B3
:1006000003200130032050300320653003206E307A
:10061000032064300320693003206E3003206730EC
:100620000320203003206A3003206F300320623023
:100630000320FE300320C5300320433003206F30F9
:1006400003206E30032074300320693003206E30A5
:10065000032075300320653003203F300320640001
:10066000051D332B38236400051E372B6D222F2BDD
:10067000A6010130A6006400053026020318662B8F
:10068000FE30032001300320523003206530032068
:1006900073300320753003206D3003206930032050
:1006A0006E30032067300320203003204A300320BF
:1006B0006F3003206230032064309420FE3003202A
:1006C0000130032064309420A60F3B2B2715013006
:1006D00089000030271901308620023089007F20F0
:1006E000A400033089007F20A5007D296300762BBC
:02400E00FD3F74
:00000001FF
